:100A2A00464F5257415244004241434B5741524468
:0C0A3A00004C4546540052494748540007
:0809FC00C2A1D2A27F0A7E0015
:100A0400E4FDFCE4FBFAC3EB9FEE6480F8EA648047
:100A14009850070BBB00010A80EC0DBD00010CBC13
:050A240003E1BDE8DE66
:010A290022AA
:0A0A62008FB0C2A01209FCC2A2224C
:060A4600AF822FF8E6FF6D
:0A0A4C008FB0D2A01209FCC2A22252
:10096200780A7C007D007BFF7A0A792A7E007F0864
:100972001208D0D2A3C2A4D2A7C2A6900000740AC1
:10098200120A46A3E5826407458370F2120A007FC9
:0409920001020A62F2
:10099600780A7C007D007BFF7A0A79327E007F0927
:1009A6001208D0C2A3D2A4C2A7D2A6900000740A8D
:1009B600120A46A3E5826408458370F2120A007F94
:0409C60001020A62BE
:1008F600780A7C007D007BFF7A0A793B7E007F05C3
:100906001208D0C2A3C2A4D2A7C2A6900000AF828A
:10091600740A120A48A3E5826404458370F0120A39
:06092600007F01020A62DD
:10092C00780A7C007D007BFF7A0A79407E007F0686
:10093C001208D0D2A3C2A4C2A7C2A6900000AF8254
:10094C00740A120A48A3E5826405458370F0120A02
:06095C00007F01020A62A7
:1009CA007F0E120A627F38120A6230900630910353
:1009DA00120962209006209103120996309006208F
:1009EA00910312092C2090063091031208F6E4FEB6
:0109FA00FFFD
:0109FB0022D9
:03000000020A569B
:0C0A5600787FE4F6D8FD7581120209CA11
:10080000E709F608DFFA8046E709F208DFFA803EDA
:1008100088828C83E709F0A3DFFA8032E309F608C7
:10082000DFFA8078E309F208DFFA807088828C832F
:10083000E309F0A3DFFA806489828A83E0A3F608E3
:10084000DFFA805889828A83E0A3F208DFFA804CBD
:1008500080D280FA80C680D4806980F28033801094
:1008600080A680EA809A80A880DA80E280CA8033FD
:1008700089828A83ECFAE493A3C8C582C8CCC58375
:10088000CCF0A3C8C582C8CCC583CCDFE9DEE78045
:100890000D89828A83E493A3F608DFF9ECFAA9F0C4
:1008A000EDFB2289828A83ECFAE0A3C8C582C8CC1A
:1008B000C583CCF0A3C8C582C8CCC583CCDFEADE33
:1008C000E880DB89828A83E493A3F208DFF980CC95
:1008D00088F0EF60010E4E60C388F0ED2402B4048E
:1008E0000050B9F582EB2402B4040050AF23234535
:0608F00082239008507302
:00000001FF
