:1009AB00436C6F636B7769736500416E7469636C3D
:0E09BB006F636B776973650000000000000039
:0C0979002509F8E6FF1209DB7F077E006D
:10098500E4FDFCE4FBFAC3EB9FEE6480F8EA6480C7
:100995009850070BBB00010A80EC0DBD00010CBC93
:0509A50003E1BDE8DEE6
:0109AA00222A
:1009C9008FB0C2A0C2A1D2A27F0A7E00120985C23D
:0209D900A22258
:1009DB008FB0D2A0C2A1D2A27F0A7E00120985C21B
:0209EB00A22246
:1008F600E4F508F509780A7C00FD7BFF7A0979ABF7
:10090600FE7F0A1208D078147C007D007BFF7A09EE
:1009160079B57E007F141208D07F0E1209C97F3880
:100926001209C9309023D291C292E4F508F50974F0
:100936000A1209790509E50970020508D39409E543
:10094600086480948040E88021C291D292E4F50840
:10095600F50974141209790509E50970020508D329
:10096600940DE5086480948040E87F011209C9E48B
:02097600FEFF82
:01097800225C
:030000000209ED05
:0C09ED00787FE4F6D8FD7581270208F63B
:10080000E709F608DFFA8046E709F208DFFA803EDA
:1008100088828C83E709F0A3DFFA8032E309F608C7
:10082000DFFA8078E309F208DFFA807088828C832F
:10083000E309F0A3DFFA806489828A83E0A3F608E3
:10084000DFFA805889828A83E0A3F208DFFA804CBD
:1008500080D280FA80C680D4806980F28033801094
:1008600080A680EA809A80A880DA80E280CA8033FD
:1008700089828A83ECFAE493A3C8C582C8CCC58375
:10088000CCF0A3C8C582C8CCC583CCDFE9DEE78045
:100890000D89828A83E493A3F608DFF9ECFAA9F0C4
:1008A000EDFB2289828A83ECFAE0A3C8C582C8CC1A
:1008B000C583CCF0A3C8C582C8CCC583CCDFEADE33
:1008C000E880DB89828A83E493A3F208DFF980CC95
:1008D00088F0EF60010E4E60C388F0ED2402B4048E
:1008E0000050B9F582EB2402B4040050AF23234535
:0608F00082239008507302
:00000001FF
