:08083200C2A5D2A67F0A7E00D8
:10083A00E4FDFCE4FBFAC3EB9FEE6480F8EA648013
:10084A009850070BBB00010A80EC0DBD00010CBCDF
:05085A0003E1BDE8DE32
:01085F002276
:0A086C008F80C2A4120832C2A62237
:0A0876008F80D2A4120832C2A6221D
:1008000075B0FFD2A0D2A1D2A27F0E12086C7F38A1
:1008100012086CC2A1120836D2A120A2FDC2A0A962
:10082000B0AF011208761208367F0112086CD2A010
:0208300080E165
:0300000002086093
:0C086000787FE4F6D8FD758107020800DF
:00000001FF
