:0F09900041444954594150414348555041544501
:0D095D00AF822FF8E6FF1209AD7F0A7E0081
:10096A00E4FDFCE4FBFAC3EB9FEE6480F8EA6480E2
:10097A009850070BBB00010A80EC0DBD00010CBCAE
:05098A0003E1BDE8DE01
:01098F002245
:0E099F008FB0C2A0C2A1D2A2120966C2A222CB
:0E09AD008FB0D2A0C2A1D2A2120966C2A222AD
:1008F60090000078087C007D007BFF7A0979907E65
:10090600007F061208D0780E7C007D007BFF7A09F6
:1009160079967E007F091208D07F0E12099F7F38D4
:1009260012099FE4F583F582740812095DA3E58236
:100936006406458370F27FC012099FE4F583F58251
:10094600740E12095DA3E5826409458370F27F0186
:0609560012099FE4FEFF00
:01095C002278
:030000000209BB37
:0C09BB00787FE4F6D8FD7581160208F67E
:10080000E709F608DFFA8046E709F208DFFA803EDA
:1008100088828C83E709F0A3DFFA8032E309F608C7
:10082000DFFA8078E309F208DFFA807088828C832F
:10083000E309F0A3DFFA806489828A83E0A3F608E3
:10084000DFFA805889828A83E0A3F208DFFA804CBD
:1008500080D280FA80C680D4806980F28033801094
:1008600080A680EA809A80A880DA80E280CA8033FD
:1008700089828A83ECFAE493A3C8C582C8CCC58375
:10088000CCF0A3C8C582C8CCC583CCDFE9DEE78045
:100890000D89828A83E493A3F608DFF9ECFAA9F0C4
:1008A000EDFB2289828A83ECFAE0A3C8C582C8CC1A
:1008B000C583CCF0A3C8C582C8CCC583CCDFEADE33
:1008C000E880DB89828A83E493A3F208DFF980CC95
:1008D00088F0EF60010E4E60C388F0ED2402B4048E
:1008E0000050B9F582EB2402B4040050AF23234535
:0608F00082239008507302
:00000001FF
