:100A8300454D455247454E43592100393837363590
:0B0A93003433323130474F2E2E2E003E
:080A3800C2A1D2A27F0A7E00D8
:100A4000E4FDFCE4FBFAC3EB9FEE6480F8EA64800B
:100A50009850070BBB00010A80EC0DBD00010CBCD7
:050A600003E1BDE8DE2A
:010A6500226E
:100A6600740A2509F8E6FF120AAA7F077E00120A11
:030A7600407F01BD
:0A0A79008FB0C2A0120A38C2A222F8
:0A0AAA008FB0D2A0120A38C2A222B7
:0C09DC008E1A8F1B8C1C8D1D8A1E8B1F19
:1009E80078207C007D007BFF7A0A79837E007F0B6C
:1009F8001208D0D290C291C292E4F583F582AF82F8
:100A080074202FF8E6FF120AAAA3E582640A458338
:100A180070EC7F01120A79E51A451B24FF9290E5D4
:0F0A28001C451D24FF9291E51E451F24FF92924D
:010A3700229C
:1008F600780A7C007D007BFF7A0A798E7E007F0A6B
:100906001208D078147C007D007BFF7A0A79987EE5
:10091600007F061208D07F0E120A797F38120A79F4
:10092600C290C291D292E4F508F509309317A290CD
:10093600E4FE33FFA291E4FC33FDA292E4FA33FB1A
:100946001209DC8003120A660509E509700205082A
:10095600C39405E5086480948040D0C290D291C2C9
:1009660092750800750905309317A290E4FE33FFCF
:10097600A291E4FC33FDA292E4FA33FB1209DC8077
:1009860003120A660509E50970020508C3940AE51B
:10099600086480948040D0D290C291C292E4F50857
:1009A600F509309317A290E4FE33FFA291E4FC33DD
:1009B600FDA292E4FA33FB1209DC8003120A6605F3
:1009C60009E50970020508C3940AE5086480948065
:0509D60040D0E4FEFF2B
:0109DB0022F9
:03000000020A9E53
:0C0A9E00787FE4F6D8FD75812A0208F686
:10080000E709F608DFFA8046E709F208DFFA803EDA
:1008100088828C83E709F0A3DFFA8032E309F608C7
:10082000DFFA8078E309F208DFFA807088828C832F
:10083000E309F0A3DFFA806489828A83E0A3F608E3
:10084000DFFA805889828A83E0A3F208DFFA804CBD
:1008500080D280FA80C680D4806980F28033801094
:1008600080A680EA809A80A880DA80E280CA8033FD
:1008700089828A83ECFAE493A3C8C582C8CCC58375
:10088000CCF0A3C8C582C8CCC583CCDFE9DEE78045
:100890000D89828A83E493A3F608DFF9ECFAA9F0C4
:1008A000EDFB2289828A83ECFAE0A3C8C582C8CC1A
:1008B000C583CCF0A3C8C582C8CCC583CCDFEADE33
:1008C000E880DB89828A83E493A3F208DFF980CC95
:1008D00088F0EF60010E4E60C388F0ED2402B4048E
:1008E0000050B9F582EB2402B4040050AF23234535
:0608F00082239008507302
:00000001FF
